{
  "contracts/token.sol": {
    "MyToken": {
      "abi": [
        {
          "inputs": [],
          "name": "count",
          "outputs": [
            {
              "internalType": "uint256",
              "name": "",
              "type": "uint256"
            }
          ],
          "stateMutability": "view",
          "type": "function"
        },
        {
          "inputs": [],
          "name": "decreaseCount",
          "outputs": [],
          "stateMutability": "nonpayable",
          "type": "function"
        },
        {
          "inputs": [],
          "name": "defaultAddr",
          "outputs": [
            {
              "internalType": "address",
              "name": "",
              "type": "address"
            }
          ],
          "stateMutability": "view",
          "type": "function"
        },
        {
          "inputs": [],
          "name": "defaultBoo",
          "outputs": [
            {
              "internalType": "bool",
              "name": "",
              "type": "bool"
            }
          ],
          "stateMutability": "view",
          "type": "function"
        },
        {
          "inputs": [],
          "name": "defaultInt",
          "outputs": [
            {
              "internalType": "int256",
              "name": "",
              "type": "int256"
            }
          ],
          "stateMutability": "view",
          "type": "function"
        },
        {
          "inputs": [],
          "name": "defaultUint",
          "outputs": [
            {
              "internalType": "uint256",
              "name": "",
              "type": "uint256"
            }
          ],
          "stateMutability": "view",
          "type": "function"
        },
        {
          "inputs": [],
          "name": "doSomething",
          "outputs": [
            {
              "internalType": "uint256",
              "name": "",
              "type": "uint256"
            },
            {
              "internalType": "uint256",
              "name": "",
              "type": "uint256"
            },
            {
              "internalType": "address",
              "name": "",
              "type": "address"
            }
          ],
          "stateMutability": "view",
          "type": "function"
        },
        {
          "inputs": [],
          "name": "increaseCount",
          "outputs": [],
          "stateMutability": "nonpayable",
          "type": "function"
        },
        {
          "inputs": [],
          "name": "name",
          "outputs": [
            {
              "internalType": "string",
              "name": "",
              "type": "string"
            }
          ],
          "stateMutability": "view",
          "type": "function"
        },
        {
          "inputs": [],
          "name": "num",
          "outputs": [
            {
              "internalType": "uint256",
              "name": "",
              "type": "uint256"
            }
          ],
          "stateMutability": "view",
          "type": "function"
        },
        {
          "inputs": [],
          "name": "symbol",
          "outputs": [
            {
              "internalType": "string",
              "name": "",
              "type": "string"
            }
          ],
          "stateMutability": "view",
          "type": "function"
        },
        {
          "inputs": [],
          "name": "text",
          "outputs": [
            {
              "internalType": "string",
              "name": "",
              "type": "string"
            }
          ],
          "stateMutability": "view",
          "type": "function"
        }
      ],
      "evm": {
        "bytecode": {
          "linkReferences": {},
          "object": "60c0604052600c60808190526b29b0b6b83632902a37b5b2b760a11b60a090815261002d91600091906100a0565b506040805180820190915260068082526539aa37b5b2b760d11b602090920191825261005b916001916100a0565b506040805180820190915260058082526448656c6c6f60d81b6020909201918252610088916007916100a0565b50607b60085534801561009a57600080fd5b50610174565b8280546100ac90610139565b90600052602060002090601f0160209004810192826100ce5760008555610114565b82601f106100e757805160ff1916838001178555610114565b82800160010185558215610114579182015b828111156101145782518255916020019190600101906100f9565b50610120929150610124565b5090565b5b808211156101205760008155600101610125565b600181811c9082168061014d57607f821691505b6020821081141561016e57634e487b7160e01b600052602260045260246000fd5b50919050565b61036e806101836000396000f3fe608060405234801561001057600080fd5b50600436106100b45760003560e01c80635abe622b116100715780635abe622b14610121578063826926791461012a57806395d89b4114610149578063abd1b73d14610151578063e834cbb31461015b578063f2427d371461016357600080fd5b806306661abd146100b957806306fdde03146100d5578063074eef3f146100ea5780631570c2cb146101075780631f1bd692146101105780634e70b1dc14610118575b600080fd5b6100c260025481565b6040519081526020015b60405180910390f35b6100dd61018e565b6040516100cc9190610263565b6003546100f79060ff1681565b60405190151581526020016100cc565b6100c260045481565b6100dd61021c565b6100c260085481565b6100c260055481565b604080516101c8815242602082015233918101919091526060016100cc565b6100dd610229565b610159610236565b005b610159610250565b600654610176906001600160a01b031681565b6040516001600160a01b0390911681526020016100cc565b6000805461019b906102e7565b80601f01602080910402602001604051908101604052809291908181526020018280546101c7906102e7565b80156102145780601f106101e957610100808354040283529160200191610214565b820191906000526020600020905b8154815290600101906020018083116101f757829003601f168201915b505050505081565b6007805461019b906102e7565b6001805461019b906102e7565b60056002600082825461024991906102b8565b9091555050565b60056002600082825461024991906102d0565b600060208083528351808285015260005b8181101561029057858101830151858201604001528201610274565b818111156102a2576000604083870101525b50601f01601f1916929092016040019392505050565b600082198211156102cb576102cb610322565b500190565b6000828210156102e2576102e2610322565b500390565b600181811c908216806102fb57607f821691505b6020821081141561031c57634e487b7160e01b600052602260045260246000fd5b50919050565b634e487b7160e01b600052601160045260246000fdfea264697066735822122008088fde4c2ecf4e10b3922da3fe2e371822c59fd161696dee779f7f5965a68264736f6c63430008070033",
          "opcodes": "PUSH1 0xC0 PUSH1 0x40 MSTORE PUSH1 0xC PUSH1 0x80 DUP2 SWAP1 MSTORE PUSH12 0x29B0B6B83632902A37B5B2B7 PUSH1 0xA1 SHL PUSH1 0xA0 SWAP1 DUP2 MSTORE PUSH2 0x2D SWAP2 PUSH1 0x0 SWAP2 SWAP1 PUSH2 0xA0 JUMP JUMPDEST POP PUSH1 0x40 DUP1 MLOAD DUP1 DUP3 ADD SWAP1 SWAP2 MSTORE PUSH1 0x6 DUP1 DUP3 MSTORE PUSH6 0x39AA37B5B2B7 PUSH1 0xD1 SHL PUSH1 0x20 SWAP1 SWAP3 ADD SWAP2 DUP3 MSTORE PUSH2 0x5B SWAP2 PUSH1 0x1 SWAP2 PUSH2 0xA0 JUMP JUMPDEST POP PUSH1 0x40 DUP1 MLOAD DUP1 DUP3 ADD SWAP1 SWAP2 MSTORE PUSH1 0x5 DUP1 DUP3 MSTORE PUSH5 0x48656C6C6F PUSH1 0xD8 SHL PUSH1 0x20 SWAP1 SWAP3 ADD SWAP2 DUP3 MSTORE PUSH2 0x88 SWAP2 PUSH1 0x7 SWAP2 PUSH2 0xA0 JUMP JUMPDEST POP PUSH1 0x7B PUSH1 0x8 SSTORE CALLVALUE DUP1 ISZERO PUSH2 0x9A JUMPI PUSH1 0x0 DUP1 REVERT JUMPDEST POP PUSH2 0x174 JUMP JUMPDEST DUP3 DUP1 SLOAD PUSH2 0xAC SWAP1 PUSH2 0x139 JUMP JUMPDEST SWAP1 PUSH1 0x0 MSTORE PUSH1 0x20 PUSH1 0x0 KECCAK256 SWAP1 PUSH1 0x1F ADD PUSH1 0x20 SWAP1 DIV DUP2 ADD SWAP3 DUP3 PUSH2 0xCE JUMPI PUSH1 0x0 DUP6 SSTORE PUSH2 0x114 JUMP JUMPDEST DUP3 PUSH1 0x1F LT PUSH2 0xE7 JUMPI DUP1 MLOAD PUSH1 0xFF NOT AND DUP4 DUP1 ADD OR DUP6 SSTORE PUSH2 0x114 JUMP JUMPDEST DUP3 DUP1 ADD PUSH1 0x1 ADD DUP6 SSTORE DUP3 ISZERO PUSH2 0x114 JUMPI SWAP2 DUP3 ADD JUMPDEST DUP3 DUP2 GT ISZERO PUSH2 0x114 JUMPI DUP3 MLOAD DUP3 SSTORE SWAP2 PUSH1 0x20 ADD SWAP2 SWAP1 PUSH1 0x1 ADD SWAP1 PUSH2 0xF9 JUMP JUMPDEST POP PUSH2 0x120 SWAP3 SWAP2 POP PUSH2 0x124 JUMP JUMPDEST POP SWAP1 JUMP JUMPDEST JUMPDEST DUP1 DUP3 GT ISZERO PUSH2 0x120 JUMPI PUSH1 0x0 DUP2 SSTORE PUSH1 0x1 ADD PUSH2 0x125 JUMP JUMPDEST PUSH1 0x1 DUP2 DUP2 SHR SWAP1 DUP3 AND DUP1 PUSH2 0x14D JUMPI PUSH1 0x7F DUP3 AND SWAP2 POP JUMPDEST PUSH1 0x20 DUP3 LT DUP2 EQ ISZERO PUSH2 0x16E JUMPI PUSH4 0x4E487B71 PUSH1 0xE0 SHL PUSH1 0x0 MSTORE PUSH1 0x22 PUSH1 0x4 MSTORE PUSH1 0x24 PUSH1 0x0 REVERT JUMPDEST POP SWAP2 SWAP1 POP JUMP JUMPDEST PUSH2 0x36E DUP1 PUSH2 0x183 PUSH1 0x0 CODECOPY PUSH1 0x0 RETURN INVALID PUSH1 0x80 PUSH1 0x40 MSTORE CALLVALUE DUP1 ISZERO PUSH2 0x10 JUMPI PUSH1 0x0 DUP1 REVERT JUMPDEST POP PUSH1 0x4 CALLDATASIZE LT PUSH2 0xB4 JUMPI PUSH1 0x0 CALLDATALOAD PUSH1 0xE0 SHR DUP1 PUSH4 0x5ABE622B GT PUSH2 0x71 JUMPI DUP1 PUSH4 0x5ABE622B EQ PUSH2 0x121 JUMPI DUP1 PUSH4 0x82692679 EQ PUSH2 0x12A JUMPI DUP1 PUSH4 0x95D89B41 EQ PUSH2 0x149 JUMPI DUP1 PUSH4 0xABD1B73D EQ PUSH2 0x151 JUMPI DUP1 PUSH4 0xE834CBB3 EQ PUSH2 0x15B JUMPI DUP1 PUSH4 0xF2427D37 EQ PUSH2 0x163 JUMPI PUSH1 0x0 DUP1 REVERT JUMPDEST DUP1 PUSH4 0x6661ABD EQ PUSH2 0xB9 JUMPI DUP1 PUSH4 0x6FDDE03 EQ PUSH2 0xD5 JUMPI DUP1 PUSH4 0x74EEF3F EQ PUSH2 0xEA JUMPI DUP1 PUSH4 0x1570C2CB EQ PUSH2 0x107 JUMPI DUP1 PUSH4 0x1F1BD692 EQ PUSH2 0x110 JUMPI DUP1 PUSH4 0x4E70B1DC EQ PUSH2 0x118 JUMPI JUMPDEST PUSH1 0x0 DUP1 REVERT JUMPDEST PUSH2 0xC2 PUSH1 0x2 SLOAD DUP2 JUMP JUMPDEST PUSH1 0x40 MLOAD SWAP1 DUP2 MSTORE PUSH1 0x20 ADD JUMPDEST PUSH1 0x40 MLOAD DUP1 SWAP2 SUB SWAP1 RETURN JUMPDEST PUSH2 0xDD PUSH2 0x18E JUMP JUMPDEST PUSH1 0x40 MLOAD PUSH2 0xCC SWAP2 SWAP1 PUSH2 0x263 JUMP JUMPDEST PUSH1 0x3 SLOAD PUSH2 0xF7 SWAP1 PUSH1 0xFF AND DUP2 JUMP JUMPDEST PUSH1 0x40 MLOAD SWAP1 ISZERO ISZERO DUP2 MSTORE PUSH1 0x20 ADD PUSH2 0xCC JUMP JUMPDEST PUSH2 0xC2 PUSH1 0x4 SLOAD DUP2 JUMP JUMPDEST PUSH2 0xDD PUSH2 0x21C JUMP JUMPDEST PUSH2 0xC2 PUSH1 0x8 SLOAD DUP2 JUMP JUMPDEST PUSH2 0xC2 PUSH1 0x5 SLOAD DUP2 JUMP JUMPDEST PUSH1 0x40 DUP1 MLOAD PUSH2 0x1C8 DUP2 MSTORE TIMESTAMP PUSH1 0x20 DUP3 ADD MSTORE CALLER SWAP2 DUP2 ADD SWAP2 SWAP1 SWAP2 MSTORE PUSH1 0x60 ADD PUSH2 0xCC JUMP JUMPDEST PUSH2 0xDD PUSH2 0x229 JUMP JUMPDEST PUSH2 0x159 PUSH2 0x236 JUMP JUMPDEST STOP JUMPDEST PUSH2 0x159 PUSH2 0x250 JUMP JUMPDEST PUSH1 0x6 SLOAD PUSH2 0x176 SWAP1 PUSH1 0x1 PUSH1 0x1 PUSH1 0xA0 SHL SUB AND DUP2 JUMP JUMPDEST PUSH1 0x40 MLOAD PUSH1 0x1 PUSH1 0x1 PUSH1 0xA0 SHL SUB SWAP1 SWAP2 AND DUP2 MSTORE PUSH1 0x20 ADD PUSH2 0xCC JUMP JUMPDEST PUSH1 0x0 DUP1 SLOAD PUSH2 0x19B SWAP1 PUSH2 0x2E7 JUMP JUMPDEST DUP1 PUSH1 0x1F ADD PUSH1 0x20 DUP1 SWAP2 DIV MUL PUSH1 0x20 ADD PUSH1 0x40 MLOAD SWAP1 DUP2 ADD PUSH1 0x40 MSTORE DUP1 SWAP3 SWAP2 SWAP1 DUP2 DUP2 MSTORE PUSH1 0x20 ADD DUP3 DUP1 SLOAD PUSH2 0x1C7 SWAP1 PUSH2 0x2E7 JUMP JUMPDEST DUP1 ISZERO PUSH2 0x214 JUMPI DUP1 PUSH1 0x1F LT PUSH2 0x1E9 JUMPI PUSH2 0x100 DUP1 DUP4 SLOAD DIV MUL DUP4 MSTORE SWAP2 PUSH1 0x20 ADD SWAP2 PUSH2 0x214 JUMP JUMPDEST DUP3 ADD SWAP2 SWAP1 PUSH1 0x0 MSTORE PUSH1 0x20 PUSH1 0x0 KECCAK256 SWAP1 JUMPDEST DUP2 SLOAD DUP2 MSTORE SWAP1 PUSH1 0x1 ADD SWAP1 PUSH1 0x20 ADD DUP1 DUP4 GT PUSH2 0x1F7 JUMPI DUP3 SWAP1 SUB PUSH1 0x1F AND DUP3 ADD SWAP2 JUMPDEST POP POP POP POP POP DUP2 JUMP JUMPDEST PUSH1 0x7 DUP1 SLOAD PUSH2 0x19B SWAP1 PUSH2 0x2E7 JUMP JUMPDEST PUSH1 0x1 DUP1 SLOAD PUSH2 0x19B SWAP1 PUSH2 0x2E7 JUMP JUMPDEST PUSH1 0x5 PUSH1 0x2 PUSH1 0x0 DUP3 DUP3 SLOAD PUSH2 0x249 SWAP2 SWAP1 PUSH2 0x2B8 JUMP JUMPDEST SWAP1 SWAP2 SSTORE POP POP JUMP JUMPDEST PUSH1 0x5 PUSH1 0x2 PUSH1 0x0 DUP3 DUP3 SLOAD PUSH2 0x249 SWAP2 SWAP1 PUSH2 0x2D0 JUMP JUMPDEST PUSH1 0x0 PUSH1 0x20 DUP1 DUP4 MSTORE DUP4 MLOAD DUP1 DUP3 DUP6 ADD MSTORE PUSH1 0x0 JUMPDEST DUP2 DUP2 LT ISZERO PUSH2 0x290 JUMPI DUP6 DUP2 ADD DUP4 ADD MLOAD DUP6 DUP3 ADD PUSH1 0x40 ADD MSTORE DUP3 ADD PUSH2 0x274 JUMP JUMPDEST DUP2 DUP2 GT ISZERO PUSH2 0x2A2 JUMPI PUSH1 0x0 PUSH1 0x40 DUP4 DUP8 ADD ADD MSTORE JUMPDEST POP PUSH1 0x1F ADD PUSH1 0x1F NOT AND SWAP3 SWAP1 SWAP3 ADD PUSH1 0x40 ADD SWAP4 SWAP3 POP POP POP JUMP JUMPDEST PUSH1 0x0 DUP3 NOT DUP3 GT ISZERO PUSH2 0x2CB JUMPI PUSH2 0x2CB PUSH2 0x322 JUMP JUMPDEST POP ADD SWAP1 JUMP JUMPDEST PUSH1 0x0 DUP3 DUP3 LT ISZERO PUSH2 0x2E2 JUMPI PUSH2 0x2E2 PUSH2 0x322 JUMP JUMPDEST POP SUB SWAP1 JUMP JUMPDEST PUSH1 0x1 DUP2 DUP2 SHR SWAP1 DUP3 AND DUP1 PUSH2 0x2FB JUMPI PUSH1 0x7F DUP3 AND SWAP2 POP JUMPDEST PUSH1 0x20 DUP3 LT DUP2 EQ ISZERO PUSH2 0x31C JUMPI PUSH4 0x4E487B71 PUSH1 0xE0 SHL PUSH1 0x0 MSTORE PUSH1 0x22 PUSH1 0x4 MSTORE PUSH1 0x24 PUSH1 0x0 REVERT JUMPDEST POP SWAP2 SWAP1 POP JUMP JUMPDEST PUSH4 0x4E487B71 PUSH1 0xE0 SHL PUSH1 0x0 MSTORE PUSH1 0x11 PUSH1 0x4 MSTORE PUSH1 0x24 PUSH1 0x0 REVERT INVALID LOG2 PUSH5 0x6970667358 0x22 SLT KECCAK256 ADDMOD ADDMOD DUP16 0xDE 0x4C 0x2E 0xCF 0x4E LT 0xB3 SWAP3 0x2D LOG3 INVALID 0x2E CALLDATACOPY XOR 0x22 0xC5 SWAP16 0xD1 PUSH2 0x696D 0xEE PUSH24 0x9F7F5965A68264736F6C6343000807003300000000000000 "
        },
        "methodIdentifiers": {
          "count()": "06661abd",
          "decreaseCount()": "e834cbb3",
          "defaultAddr()": "f2427d37",
          "defaultBoo()": "074eef3f",
          "defaultInt()": "5abe622b",
          "defaultUint()": "1570c2cb",
          "doSomething()": "82692679",
          "increaseCount()": "abd1b73d",
          "name()": "06fdde03",
          "num()": "4e70b1dc",
          "symbol()": "95d89b41",
          "text()": "1f1bd692"
        }
      }
    }
  }
}