{
  "_format": "hh-sol-artifact-1",
  "contractName": "MyToken",
  "sourceName": "contracts/token.sol",
  "abi": [
    {
      "inputs": [],
      "name": "count",
      "outputs": [
        {
          "internalType": "uint256",
          "name": "",
          "type": "uint256"
        }
      ],
      "stateMutability": "view",
      "type": "function"
    },
    {
      "inputs": [],
      "name": "decreaseCount",
      "outputs": [],
      "stateMutability": "nonpayable",
      "type": "function"
    },
    {
      "inputs": [],
      "name": "defaultAddr",
      "outputs": [
        {
          "internalType": "address",
          "name": "",
          "type": "address"
        }
      ],
      "stateMutability": "view",
      "type": "function"
    },
    {
      "inputs": [],
      "name": "defaultBoo",
      "outputs": [
        {
          "internalType": "bool",
          "name": "",
          "type": "bool"
        }
      ],
      "stateMutability": "view",
      "type": "function"
    },
    {
      "inputs": [],
      "name": "defaultInt",
      "outputs": [
        {
          "internalType": "int256",
          "name": "",
          "type": "int256"
        }
      ],
      "stateMutability": "view",
      "type": "function"
    },
    {
      "inputs": [],
      "name": "defaultUint",
      "outputs": [
        {
          "internalType": "uint256",
          "name": "",
          "type": "uint256"
        }
      ],
      "stateMutability": "view",
      "type": "function"
    },
    {
      "inputs": [],
      "name": "doSomething",
      "outputs": [
        {
          "internalType": "uint256",
          "name": "",
          "type": "uint256"
        },
        {
          "internalType": "uint256",
          "name": "",
          "type": "uint256"
        },
        {
          "internalType": "address",
          "name": "",
          "type": "address"
        }
      ],
      "stateMutability": "view",
      "type": "function"
    },
    {
      "inputs": [],
      "name": "increaseCount",
      "outputs": [],
      "stateMutability": "nonpayable",
      "type": "function"
    },
    {
      "inputs": [],
      "name": "name",
      "outputs": [
        {
          "internalType": "string",
          "name": "",
          "type": "string"
        }
      ],
      "stateMutability": "view",
      "type": "function"
    },
    {
      "inputs": [],
      "name": "num",
      "outputs": [
        {
          "internalType": "uint256",
          "name": "",
          "type": "uint256"
        }
      ],
      "stateMutability": "view",
      "type": "function"
    },
    {
      "inputs": [],
      "name": "symbol",
      "outputs": [
        {
          "internalType": "string",
          "name": "",
          "type": "string"
        }
      ],
      "stateMutability": "view",
      "type": "function"
    },
    {
      "inputs": [],
      "name": "text",
      "outputs": [
        {
          "internalType": "string",
          "name": "",
          "type": "string"
        }
      ],
      "stateMutability": "view",
      "type": "function"
    }
  ],
  "bytecode": "0x60c0604052600c60808190526b29b0b6b83632902a37b5b2b760a11b60a090815261002d91600091906100a0565b506040805180820190915260068082526539aa37b5b2b760d11b602090920191825261005b916001916100a0565b506040805180820190915260058082526448656c6c6f60d81b6020909201918252610088916007916100a0565b50607b60085534801561009a57600080fd5b50610174565b8280546100ac90610139565b90600052602060002090601f0160209004810192826100ce5760008555610114565b82601f106100e757805160ff1916838001178555610114565b82800160010185558215610114579182015b828111156101145782518255916020019190600101906100f9565b50610120929150610124565b5090565b5b808211156101205760008155600101610125565b600181811c9082168061014d57607f821691505b6020821081141561016e57634e487b7160e01b600052602260045260246000fd5b50919050565b61036e806101836000396000f3fe608060405234801561001057600080fd5b50600436106100b45760003560e01c80635abe622b116100715780635abe622b14610121578063826926791461012a57806395d89b4114610149578063abd1b73d14610151578063e834cbb31461015b578063f2427d371461016357600080fd5b806306661abd146100b957806306fdde03146100d5578063074eef3f146100ea5780631570c2cb146101075780631f1bd692146101105780634e70b1dc14610118575b600080fd5b6100c260025481565b6040519081526020015b60405180910390f35b6100dd61018e565b6040516100cc9190610263565b6003546100f79060ff1681565b60405190151581526020016100cc565b6100c260045481565b6100dd61021c565b6100c260085481565b6100c260055481565b604080516101c8815242602082015233918101919091526060016100cc565b6100dd610229565b610159610236565b005b610159610250565b600654610176906001600160a01b031681565b6040516001600160a01b0390911681526020016100cc565b6000805461019b906102e7565b80601f01602080910402602001604051908101604052809291908181526020018280546101c7906102e7565b80156102145780601f106101e957610100808354040283529160200191610214565b820191906000526020600020905b8154815290600101906020018083116101f757829003601f168201915b505050505081565b6007805461019b906102e7565b6001805461019b906102e7565b60056002600082825461024991906102b8565b9091555050565b60056002600082825461024991906102d0565b600060208083528351808285015260005b8181101561029057858101830151858201604001528201610274565b818111156102a2576000604083870101525b50601f01601f1916929092016040019392505050565b600082198211156102cb576102cb610322565b500190565b6000828210156102e2576102e2610322565b500390565b600181811c908216806102fb57607f821691505b6020821081141561031c57634e487b7160e01b600052602260045260246000fd5b50919050565b634e487b7160e01b600052601160045260246000fdfea264697066735822122008088fde4c2ecf4e10b3922da3fe2e371822c59fd161696dee779f7f5965a68264736f6c63430008070033",
  "linkReferences": {},
  "deployedLinkReferences": {}
}